:020000040800F2
:1000000000500020D1AC000817AD000819AD000861
:100010001BAD00081DAD00081FAD0008000000006A
:1000200000000000000000000000000021AD0008FA
:1000300023AD00080000000025AD0008714F000846
:100040002BAD00082DAD00082FAD000831AD000824
:1000500033AD000835AD000837AD000839AD0008F4
:100060003BAD00083DAD00083FAD000841AD0008C4
:10007000758A000845AD000847AD000849AD000885
:100080004BAD00084DAD00084FAD000851AD000864
:1000900053AD000855AD000857AD000859AD000834
:1000A0005BAD00085DAD00085FAD000861AD000804
:1000B0000954000865AD000867AD000869AD000887
:1000C0006BAD00086DAD00086FAD000871AD0008A4
:1000D00073AD000839530008E9A30008CD4A0008B1
:1000E0007BAD00087DAD00087FAD000810B5054C64
:1000F000237833B9044B13B10448AFF300800123D4
:10010000237010BD3001002000000000DCD7000883
:10011000084B10B51BB108490848AFF300800848E8
:10012000036803B910BD074B002BFBD0BDE810409E
:10013000184700BF0000000034010020DCD7000891
:100140003001002000000000154B002B08BF134BAE
:100150009D46A3F5803A00218B460F461348144A6A
:10016000121A0AF0FFFE0F4B002B00D098470E4BDF
:10017000002B00D098470020002104000D000D48FE
:10018000002802D00C48AFF300800AF0BDFE20002A
:10019000290000F013F80AF0FBFD00BF0000080082
:1001A000005000200000000000000000300100208E
:1001B0004032002000000000000000002DE98048CF
:1001C0008D4CB3B007F0B4FD62688C4B02F00C02AA
:1001D000042A01D0082A01D0894A0EE062686168C9
:1001E000C2F38342CE0302F1020202D561688D039D
:1001F00001D5844900E082494A431A606268824915
:10020000C2F30312895C1A68804DCA401A60A36960
:100210007F4A43F00103A3615368516823F0706380
:1002200021F0706143F00073516005F12C005360C0
:1002300078494FF48073EB800BF00FF9764905F1A4
:100240006C000BF00AF907F075FF744805F0D2F85E
:10025000734805F0CFF8734805F0CCF8704805F006
:10026000C9F8714805F0C6F86D4805F0C3F84FF0BD
:10027000020805F0B7F804238DF84E808DF84F3052
:10028000A36932AE43F00803A361082326F87C3D3E
:100290003146664807F088FE654805F0ABF86048CF
:1002A00005F0A8F805F09EF88DF84E80A369314658
:1002B00043F00803A36110275C484FF0010B8DF851
:1002C0004F70ADF84CB007F06FFE5A4805F092F849
:1002D000534805F08FF8584805F08CF8504805F061
:1002E00089F805F07FF80AF00DFB544805F082F814
:1002F0004B4805F07FF805F075F807F02FFB5048E4
:1003000005F078F8464805F075F805F06BF88DF8BB
:100310004E80A36931463B43A3618DF84F70494F2E
:100320004FF4005A3846ADF84CA007F03DFE464861
:10033000C7F810A005F05EF8394805F05BF805F045
:1003400051F84FF048038DF84E80A269314642F0D3
:100350000402A2614022ADF84C203C4A8DF84F3097
:100360001046049207F020FE049ADFF88C90916802
:10037000480677D4C7F814A007F0DCFE09F0E0FDCA
:10038000334B1B68B3F5E13F01D007F05BFE049BE4
:1003900010245C61049B01255D61322004F0ECFBBC
:1003A000049B4FF4FA701D6104F0E6FB294D049B99
:1003B000294F1C612C463B6833B1304609F0FEFDE5
:1003C00010B1139809F0EEFA2B68002BF3D0234BF1
:1003D000234819684A1CB2F5807F405C1A6004BF4C
:1003E00000221A60C0B272B62368013B236062B675
:1003F00013900AF04FF8DEE700100240980000204A
:1004000000127A0000093D0030000020101C00207E
:1004100000000140A0BC0008AABC0008B1BC000854
:10042000EFC00008D0BC0008EDBC0008000C014083
:10043000FABC000808BD00081CBD000828BD000863
:1004400036BD0008001001405ABD000800080140F8
:10045000041C00201C030020180300209C03002023
:10046000F8010020BD4804F0C5FFBD4804F0C2FFFC
:1004700004F0B8FF0023ADF85230ADF84E308DF8DF
:100480005430D9F81C304FF0804743F00103C9F8CD
:100490001C303B8811A823F45C731B041B0C3B80AD
:1004A0000523BB8540F21F333B85A7F814B0BB89F9
:1004B0009BB243F00103BB811C238DF844300F2312
:1004C0008DF845308DF846308DF847B007F06AFA60
:1004D0003B88A4489BB243F001033B8004F08AFFB1
:1004E0009F4804F087FF04F07DFF8DF84E80D9F817
:1004F0001830314643F00403C9F818308023ADF8B2
:100500004C304FF0480304988DF84F3007F04CFD05
:10051000954804F06FFF04F065FF944804F06AFF0B
:100520008F4804F067FF924804F064FF8C4804F0A1
:1005300061FF04F057FF8F4804F05CFF884804F027
:1005400059FF04F04FFF8C4804F054FF844804F036
:1005500051FF04F047FF894808F00EFB87480AF076
:100560002BF8874B1A6898460AB1864800E08648FF
:10057000864F04F03FFF7A4804F03CFF3B680BB124
:10058000834800E0834804F035FF754804F032FFEB
:10059000D8F800300BB13B6813BB7F4804F02AFF4A
:1005A0006F4804F027FF4CF2503008F0E5FA4CF2A7
:1005B00050300AF001F8D8F800300BB1774800E06D
:1005C000774804F017FF664804F014FF3B680BB14E
:1005D000744800E0744804F00DFF614804F00AFF1D
:1005E00005F0A8FC714F724B00221A6008F004FC61
:1005F00003F08AFE0AF070F8D7F80090B9F1000F06
:100600004BD102238DF846308DF85090636811A9C4
:1006100023F4404343F400436360A369654843F017
:100620001103A3612023ADF844308DF8479007F003
:10063000BBFCA36943F40073A3615F4B8DF850903A
:100640005A6822F4702222F480725A6099685B4AD8
:100650000A4042F460229A60DA6A22F47002DA6296
:100660001A6922F460321A615A6B22F01F0242F0BA
:1006700005025A639A6842F001029A609A6842F051
:1006800008029A6099684C4A0907FBD4936843F0C2
:100690000403936093685B07FCD44FF0020B0423C0
:1006A0004FF00109C7F800908DF84EB08DF84F302B
:1006B000A369434F43F00803A36131464FF48073AD
:1006C0003846ADF84C3007F06FFC8DF84EB0A3699A
:1006D0004FF4007B43F00803A361314610233846F2
:1006E000ADF84CB08DF84F3007F05EFCC7F810B095
:1006F000DFF8D4B0DFF8D4A0DBF80030CBB907F0D6
:100700002DF9CBF80090DAF818304FF0200943F0BB
:100710002003CAF8183014238DF84F3031460323D4
:100720003846ADF84C908DF84E3007F03DFCC7F8D8
:1007300010900AF0EFF9002800F093800AF0EAF92F
:10074000204F002844D033200AF098F90821384679
:100750000AF0C8F90AF0DEF93CE000BF48BD000825
:10076000EFC0000857BD000869BD000873BD000850
:1007700079BD00088DBD00089CBD0008A086010061
:1007800070000020AEBD0008BCBD0008881E00201F
:10079000CBBD0008DCBD0008EEBD000812BE00089D
:1007A00024BE000838BE00084DBE000850060020D8
:1007B000AC2900200008014000240140FDF7F1FFB2
:1007C000000C0140B50B0020600300200010024027
:1007D000386078603B78B84A01211360B74A222B11
:1007E000116001D0282B3CD10AF094F9C8B35520F0
:1007F000B34F0AF043F907F04BFABE200AF03EF976
:10080000092138460AF06EF93B7913F0600F28D0C1
:100810000AF080F928B355200AF030F907F038FAC9
:100820004E200AF02BF97F200AF028F980200AF0E8
:1008300025F900200AF022F90AF06CF90AF06AF9A9
:1008400078B155200AF01AF907F022FA48200AF088
:1008500015F9FA270AF032F908B9013FFAD10AF07E
:1008600059F9984B1A68B2F5165F68D000274FF413
:1008700016594FF00C0AC3F80090CDF84C90ADF823
:100880005070ADF85270ADF85470ADF856A0ADF898
:100890005870A36910A943F00803A361A3698A48AB
:1008A00043F00803A361E36943F48023E3614FF459
:1008B00080630324ADF8403018238DF843308DF861
:1008C000424007F071FB4FF400638DF842407F4CCB
:1008D000ADF8403010A948237B488DF8433007F02D
:1008E00063FBA38920466FEA43436FEA53439BB2FD
:1008F000A3813146CDF84C90ADF85070ADF85270F0
:10090000ADF85470ADF85870ADF856A007F0EEFA97
:10091000A3896F4A9BB243F40053A381136811A8C3
:1009200043F02003136027238DF8443001238DF812
:1009300045708DF846708DF8473007F033F86548FC
:1009400004F058FD00210C2004F06CF8624B0122E9
:100950001A60624B1C461F68033723689F4210D9F8
:1009600011A809F0C9F80028F7D04FF47A7004F004
:1009700003F911A809F0C0F808F080F908B108F0EF
:1009800051F9574B1A6882BB01241C6007F0D2FB57
:10099000544804F02FFD09F0D3FA534B1B68B3F50C
:1009A000E13F01D007F04EFBDFF86C91049B4F460E
:1009B0005C61322004F0E0F8049B1C610023DFF846
:1009C0005CA1C9F800303224DAF800301BB93B686A
:1009D000002BF9D005E0304609F0F0FA0028F6D0F7
:1009E000ECE70023013C3B60EED1344B1B680BB1BC
:1009F00007F0F4FED8F800300BB108F0A1F8D8F8F1
:100A0000003013B307F050F9F8B1EA69AB696869CF
:100A1000296A2C69EE68AF6802F26C720133C5F87E
:100A2000B020C5F8B430C5F8B800C5F8AC10C5F8AA
:100A3000BC40C5F8C060C5F8C4708DE8D1002B4833
:100A400050F821102A4805F05FFA2A4C04F052FCB5
:100A50002546FF2305930793274E002308930B9306
:100A600006931E4BD3F80080244BC3F80080069BEE
:100A7000002B70D00B9BC3EB0803052B50D9049BB4
:100A80009F6817F040074BD11D4804F0B3FC1D4888
:100A900004F0B0FC1C4B1D4A5F6083F83C701C499D
:100AA0001C4B13A80AF08EFC0122394613A809F04A
:100AB000DBF9CDF82C804EE0301D00202003002013
:100AC000A824002088030020000C014000480040BA
:100AD0000C48004063BE0008280300204C010020A1
:100AE0009801002075BE0008041C0020DCBB000833
:100AF00086BE0008E00C002028000020D001002065
:100B0000B2BE0008EFC0000854060020F6BE000880
:100B100000BF0008EBBE0008BC0100201803002045
:100B2000089BC3EB0803052B15D9049B9F6817F09E
:100B3000800710D13F4804F05DFC3F4804F05AFCA8
:100B40003E4B012239463E485F6083F83C7009F015
:100B50008BF9CDF8208001F025FBA36A002B48D04B
:100B6000636B002B45D1A369002B42D0354FB81CD5
:100B700004F0ACFB00283CD07B88B7F804E0F88890
:100B8000734538BFA7F802E07B88834284BF2D4BB2
:100B90005880864514D27A88CEEB0003CEEB020251
:100BA000520192FBF3F33A781F2B28BF1F23934285
:100BB000244901D9013201E004D2013A0A7001E06E
:100BC0001F233B70204A7988136801F11000984276
:100BD000C1F055811033994201F251811B493B7894
:100BE0000A68581C9042C1F055810132934201F2CB
:100BF0005181069B53B9114B1B68002B31D014480F
:100C000004F0F8FB0C4804F0F5FB10E0114B1A68F7
:100C10006AB90A4A0127526812B30F481F6004F0EC
:100C2000E9FB054804F0E6FB0C4B1F6018E00123CC
:100C3000069316E00DBF0008EFC000085406002020
:100C40003DBF000820000020100000200800002008
:100C500041BF00089803002050BF0008A8010020F1
:100C60000697824A1368002B5CD0814B814F1B682A
:100C70006433FB61804B1B68013BBB617F4B1B688E
:100C80007B617F4B196807294FF000010CBF0B46B1
:100C90001B68B9623B627B4B11601B683B617A4BFE
:100CA0001B68FB600F23BB60784B1B680BB106F021
:100CB00087FFD7F8BC103A696E4B914204D1D3F844
:100CC000C020DB689A4206D0714B5B680BB107F01D
:100CD00019FC04233360FA69BB697869396AD7F86B
:100CE00010E0D7F80CC0D7F8088002F26C7201331C
:100CF000C7F8B020C7F8B430C7F8B800C7F8AC10D0
:100D0000C7F8BCE0C7F8C0C0C7F8C4808DE8014090
:100D10006048CDF80C8050F82110CDF808C05E482E
:100D200005F0F2F85D4B1B68002B3DD0574B1B685C
:100D3000002B36D006F0B8FF98B34E49D1F8BC303E
:100D40000869834204D1D1F8C020CB689A4201D00F
:100D500004233360CA698B690F6AD1F814E0D1F8B3
:100D60000CC0D1F8088002F26C720133C1F8B020D7
:100D7000C1F8B430C1F8B8E0C1F8AC70C1F8BC003B
:100D8000C1F8C0C0C1F8C48042490190CDF80C80C0
:100D9000CDF808C0CDF800E051F82710404805F024
:100DA000B3F83E4B00221A60A36A7BB1606B68B94E
:100DB000A3695BB13B490B6843B13B4A936843F479
:100DC000A0039360394B01221A600860384F3B68DA
:100DD00083B12F4B5B683BB1364901220B7803B9D5
:100DE0001946354809F040F840F6D86200233B60C8
:100DF000324B1A60324B1A68002A00F09E801D4F59
:100E000000221A60D7F8B030A3F26C73FB61D7F8F8
:100E1000B430013BBB61D7F8B8307B61D7F8BC3048
:100E20003B61D7F8C030FB60D7F8C430BB60D7F85F
:100E3000AC303B62164B5B680BB107F063FBD7F835
:100E4000AC20D5F82C80D7F8BC30D7F8C0103C20A7
:100E500000FB03134146002009F096FE002845D010
:100E6000B8F1000F2ED0012100202DE0A4010020B8
:100E7000B4010020101C0020640300207003002037
:100E800000030020F8020020E0060020700000208F
:100E900054060020DCBB000863BF000828030020C4
:100EA00086BE000894030020002401405001002069
:100EB000A8010020A40000208CBF00081C00002016
:100EC000480300204146012009F0E2FBDFF89CE2E4
:100ED0003060E96AA348D7F8BC20002914BF7146E6
:100EE0000146D7F8C030A04805F00EF8D7F8AC207E
:100EF000D5F83080D7F8BC30D7F8C0103C2000FBC4
:100F000003134146012009F03FFE90B1B8FA88F082
:100F1000400906F0DFFCD7F8BC209248216BD7F8D7
:100F2000C030924F002914BF39460146904804F062
:100F3000EBFF33680BB9042333608E4B1A68002A29
:100F400064D000271F60EB6A002B5FD040F6BA62C6
:100F5000894B1968914204D91968884804F0D4FF74
:100F600054E0874BDFF82492D3F8B410D3F8B820BC
:100F7000D3F8B00002EB012882490A688A46904201
:100F80000BD1814BD9F800901B68804A099300234C
:100F90009C461946DFF8E8A112E0D3F8B0300B60A8
:100FA000D9F800309F42ECD23846DAF8001009F048
:100FB000C1FC0137F4E7176CF80704D4013144325F
:100FC0004945F8D11EE0DAF8C0B0D2F808E0BBFB22
:100FD000FEF70EFB17B7002FF0D1576927B1B845C0
:100FE000ECD3506C8045E9D8F44507D3E6D1002F07
:100FF00009981CBF084601230990DFE70991F446D0
:101000000123DBE713B1604B099A1A60604BDFF8EC
:1010100088811A681AB300271F605E4B1B68F3B102
:10102000D8F8009009F076FDC8B1552009F026FDEA
:1010300006F02EFE442009F021FDB9F1000F0ED07C
:1010400043F2154909F03AFD013710B94F45F9D17E
:1010500003E043F215439F4201D109F05BFDD8F84C
:101060000030F3B14C4B00221A604A4B1B68B3B1FD
:1010700007F0B4FB494B10F0010F0790484A4FEAC4
:10108000500108BF1A46474804F03EFF464B5B68D4
:101090003BB1464B1720596807F010FA01E0FF23D7
:1010A0000793434B1A68E2B1424F00221A603B6833
:1010B000ABB107F045FD394B10F0010F0590384AF0
:1010C0004FEA500108BF1A463B4804F01DFF364B5B
:1010D0005B6833B1B968152007F0F0F901E0FF2330
:1010E0000593294FDFF8E8903968DFF8E8A01F2959
:1010F00000F2E580254A4FF0440808FB01235B68B5
:101100009346013B082B00F2D780DFE803F005256A
:10111000656F8B95A47D900008FB01B127481C31B9
:1011200004F0F2FE3868264A08FB00F80BEB0801D1
:10113000CB682448042B98BF05231C31C2F8A83281
:1011400009F0D8F93B684FF0440808FB03B81E4B80
:10115000D8F80C201A60AFE00123C9F800301B4812
:101160003EE000BF83C1000891BF00086BD60008B5
:10117000B0BF0008540300201C000020D9BF0008A5
:10118000101C0020B801002004000020AC29002021
:101190007C0300202003002014030020F1C000087D
:1011A00076BD000809C00008540600209C000020FD
:1011B000080300207000002025C000083DC0000882
:1011C000A40300204FC00008240300205EC00008D4
:1011D000A00100209003002001239A48CAF80030A3
:1011E00004F008F9984804F005F965E0002007F0DC
:1011F0001DF83B684FF0440808FB03B8934BD8F840
:101200000C2093481A60EBE7012007F00FF83B68C9
:101210004FF0440808FB03B88C4BD8F80C208D48DD
:101220001A60DDE7022007F001F88B48D8E70320B9
:1012300006F0FCFF8948D3E708FB01B188481C3160
:1012400004F062FE386808FB00B01C3006F08CFC2D
:101250000423336030E008FB01B808F11C082F219B
:1012600040460AF0E2F80A9010B37E4B3C20D3F8D7
:10127000BC10D3F8C03000FB01334046099309F09D
:1012800083FD0A9A8346501C09F07EFD099B804627
:10129000184609F003FD78B159464246724804F0F9
:1012A00033FE48EA0B2189B20F2003F0BBFB03E0B9
:1012B00041466E4804F028FE20233B6015E06C4A4E
:1012C000136893B1591C08D16B6A73B9A36A63B1EF
:1012D000684B1B680533136007E0664909688B4259
:1012E0009FBF0023136004233360DAF800307BB122
:1012F000614B00221A60079BFF2B02D1059BFF2B3D
:1013000006D0184605F08EF8594B4FF0FF321A60A0
:10131000D9F80030002B40D0584B0020DFF89481E2
:10132000504F186018F8013F93B31B2830DC592B3D
:101330001ED006D8442B0CD04D2B1ED1BA690132D9
:1013400008E06D2B0CD0792B0FD0642B15D17A6966
:1013500011E07A694A4913AB18440AF033F813E0F4
:101360000D2811DCBA69013205E0FA69643AF1E747
:10137000FA6902F26C724349EDE732AA104400F8B0
:101380007C3C002300F87B3C13A80AF06EF8C9E708
:1013900013A806F0E9FB0423336032683A4F002AB1
:1013A00036D03A4B29681B68013B994227D1384B0C
:1013B0001B6863B107F012FA364B10F0010F80463C
:1013C000354A4FEA500108BF1A4634480DE0344B05
:1013D0001B68DBB107F0B4FB2E4B10F0010F2E4A57
:1013E00008BF1A46804641082E4804F08DFDB8F12A
:1013F000130F0BD93A68A8F11401002004E0194B2F
:10140000D3F8BC00D3F8C01006F01CFA00233B60F0
:10141000254B1A68002A00F0DE8100211960234B59
:101420001B681B78002B47D0214AD5F85802136857
:10143000013383421360C0F0CE81116005F022F8C1
:10144000C9E100BF6BC00008EFC000082403002002
:101450007FC0000894C00008B2C00008C2C00008E5
:10146000DBC00008101C0020F2C000080BC10008FF
:101470008C030020D001002090030020A001002058
:1014800088D10008F0C3000828000020D41E0020E6
:1014900020030020F1C0000876BD00082DC100081F
:1014A0007000002052C10008CC01002090000020F4
:1014B000800300203B0F00206A6B002A7AD0E26A8A
:1014C000002A00F08881DFF8A4828DF84C30D8F82B
:1014D00000708DF84D308DF84E308DF84F30002F64
:1014E0003DD1BA46DFF8A49207F809A0384613A9FF
:1014F000013706F009FBB7F5907FF5D1944F02F064
:1015000067FF3B68934AC3F10E035B0813607B6877
:10151000914AC3F110035B0807F1E800136009F07A
:10152000A4FF8E4B186007F5E47009F09EFF8C4B0A
:101530008C4A1860D7F8A832042B9CBF0523C7F843
:10154000A832D7F8A83203F18063013B9B011360F6
:10155000854B00221A600123C8F800303BE1824B22
:101560001F680137FA071F601AD57F2F01D87B0843
:1015700006E07C4B1B68DB1B7F2B00F22C815B0899
:10158000EA68763255F822209A42099280F09184D6
:10159000724B1B68002B40F08D8401E002F018FFB5
:1015A000704B1B689F42C0F01681704A0023136085
:1015B000636310E1236A0C2B20D8E26A1AB9626ACD
:1015C0000AB9A26AF2B96A6A1AB1142202FB034389
:1015D00012E0A76AB7B9042B02D1D4F8A8300CE006
:1015E000142000FB03436249D86D0A68013282422D
:1015F0000A60C0F0F0800F609B6D9847AB6A002BCB
:1016000000F0E980AB68012B48D15A4AD4F86C113C
:1016100013680133B3EB411F13604DD356480023C9
:1016200013600368013B052B00F2D384DFE803F06D
:10163000030A1118222C95F845303E2B00F2C9847C
:10164000013313E095F84430002B00F0C284013BD5
:1016500016E095F846303E2B00F2BB84013319E0CA
:1016600095F84530002B00F0B484013B84F84530F8
:1016700000F0ABBC95F844303E2B00F2AA84013355
:1016800084F8443000F0A1BC95F84630002B00F0FF
:10169000A084013B84F8463000F097BC022B0BD1AC
:1016A000364A374BD2F8BC001968884204D0D2F8C9
:1016B000BC201A6005F0AEF96B68032B68D1314A83
:1016C000D4F8BC1113680133B3EB411F13606DD321
:1016D0002D48002313600368013B052B00F2C884EA
:1016E000DFE803F0030A1118222C95F849303E2B4D
:1016F00000F2BE84013313E095F84830002B00F06F
:10170000B784013B16E095F84A303E2B00F2B084D6
:10171000013319E095F84930002B00F0A984013B12
:1017200084F8493000F078BC95F848303E2B00F240
:101730009F84013384F8483000F06EBC95F84A303D
:10174000002B00F09584013B84F84A3000F064BC23
:10175000A40300209401002040030020A0030020E7
:10176000B001002074030020840300204C030020FB
:101770009C010020AC01002038030020101C002038
:10178000140000203C03002010030020BD0B0020AB
:10179000042B0BD1B44AB54BD2F8BC00196888426F
:1017A00004D0D2F8BC201A6005F064F8EB6A93B953
:1017B000D4F83080B8F1000F0DD1AD4F3B6853B174
:1017C000AC4B01225A61AC4803F014FEAB4803F065
:1017D00011FEC7F80080AA4B1A68002A00F0728137
:1017E00000211960A74B1F686368013B012B00F2C1
:1017F0006981236CA44A9F4228BF0F461368BB42ED
:10180000A24B5FD019602B6917600F2B28BF0F23E5
:10181000863355F823209E4910A802F027FD9D4AE3
:101820009DF841109DF8403012F811009DF843C01A
:101830009DF8421012F813E012F81110964B12F8AE
:101840001C2083F800E058709970DA70EB691B0770
:101850003BD51423BEFBF3F8DFF844C2B8F1000F08
:1018600001D14FF00108B0FBF3F3CCF80080DFF8B2
:1018700034C203B90123CCF800301423B1FBF3F8D0
:10188000DFF824C2B8F1000F01D14FF00108B2FB1C
:10189000F3F3CCF80080DFF814C203B90123CCF8CD
:1018A00000307E4B4FF0000C83F800C083F801C07D
:1018B00083F802C083F803C083F804E0587199717B
:1018C000DA7102E01A6801321A60EB69180759D51B
:1018D0007249734ADFF8C0C1D2F800E00B789CF877
:1018E000002073449342D4BF0B700A704B786D494B
:1018F0006A4A08689CF8011003448B42D4BF5370B5
:101900005170664B68499A7809689CF802C00A448D
:101910006245D8BF9A70654ADFF87C81C8BF83F8FA
:1019200002C01268DB7898F803801344DFF86CC1BA
:101930004345D8BF8CF80330584BC8BF8CF80380A0
:1019400093F804C0BCEB0E0E48BF4FF0000E83F8B6
:1019500004E093F805E0DFF844C1BEEB000048BFA7
:1019600000208CF805009879DFF830E1411ADB7926
:1019700048BF00218EF806109A1A48494ABF002332
:10198000CA71CB716B68012B47D1002005F048FF6D
:10199000D4F8A43199072AD5236C3C2B27D1E369CD
:1019A00013F0040F3B4B17D0414A11784FF0000859
:1019B00033F811108DF84C10517833F811108DF860
:1019C0004D10917833F811108DF84E10D27833F80D
:1019D00012308DF84F3001E0364AE6E7404613A951
:1019E00008F1050806F06AF8B8F13C0FF6D1EB698A
:1019F0001A0729D5002FBBBF206C28492749C019D9
:101A0000A8BF384606F05AF8781E45BF2B6C2A4905
:101A10002949C01806F052F850E0134B0020D3F8C3
:101A2000C08005F0FDFE18F0010810D1474506D032
:101A30004046194906F042F808F10108F6E7EB695B
:101A40001B0701D5154900E013493846E2E7E36971
:101A5000180707D51849384606F030F82B6C0137BF
:101A60009F422BD20C49F6E7101C00202C000020CE
:101A7000BC000020000C014073C10008EFC000084A
:101A8000780300205C0300200C0300205803002092
:101A9000280D002020BC00086C030020300300202B
:101AA000C4010020FC020020C801002044030020E3
:101AB0000000002018000020340300202B6B0BB125
:101AC00002F036FC934B1A680AB100221A6013A880
:101AD00008F012F8002800F02E818F4A13680133B5
:101AE00013608E4A9DF85130116821B9D90702D58B
:101AF000012313601FE103F00103142113A81360F5
:101B000008F0E0FEFF2800F01681132800F2138190
:101B1000DFE810F0140011011D0023002F003B002E
:101B200041004B00570061009200A100A900B100E4
:101B3000BB00C300DA00EA00CD000E01E06A01211B
:101B4000B0FA80F0400908F0A3FD3060F3E02068AF
:101B500008B9734B1868013807E0714B20681B689F
:101B6000013B984234BF01300020012104F03CFECB
:101B700009E0236A0BB90C2300E0013B236206F065
:101B8000B1FC04F001FE04239CE0236A0B2B94BFFC
:101B900001330023F2E7634BD3F8BC201AB1D3F82A
:101BA000BC20013A0AE0172208E05E4BD3F8BC20C3
:101BB000162A96BFD3F8BC2000220132C3F8BC20FD
:101BC00014E0584BD3F8C0201AB1D3F8C020013A22
:101BD0000AE03B2208E0534BD3F8C0203A2A96BFD4
:101BE000D3F8C02000220132C3F8C0200022C3F87D
:101BF000C420042333604C4B1B68002B00F09B80F7
:101C0000484AD2F8B030A3F26C73D361D2F8B43042
:101C1000013B9361D2F8B8305361D2F8BC30136104
:101C2000D2F8C030D360D2F8C4309360D2F8AC3070
:101C3000136205F0C5FF7EE094F84430002B40D0DD
:101C4000012B0CBF0023023B84F8443004F094FEC7
:101C500006F08CFC35E094F844303E2B31D80CBFB4
:101C60003F230233F0E794F8453053B3012B0CBF08
:101C70000023023B06E094F845303E2B21D80CBFF0
:101C80003F23023384F84530E0E794F84630C3B18F
:101C9000012B0CBF0023023B06E094F846303E2B9C
:101CA0000FD80CBF3F23023384F84630CEE7A0693B
:101CB0001E4BB0FA80F0FF22012140091A6004F0A7
:101CC00079FE0223336036E0A36943B1174BFF224C
:101CD000012100201A6004F06DFE02233360EB68DE
:101CE000002BEED0013B0EE0A36943B10F4BFF2266
:101CF000012100201A6004F05DFE02233360EB68CE
:101D00000E2BDED80133E36004F036FE06F0F2FB62
:101D1000D7E700BF68030020C00100205003002067
:101D2000D41E0020101C002070000020080000209D
:101D3000BB4B01221A60DFF800A302F02BFFDAF898
:101D40000030002B3EF48DAEB64B1A683AB9012232
:101D5000B5481A6003F04EFBB44803F04BFBDFF8C4
:101D6000DC82DFF80493D8F8C020D9F800309A421A
:101D70003EF477AED8F8BC20D8F8C0303C2000FB49
:101D80000230AB49D8F8AC20002751F837304FEA81
:101D9000C70E13F0800F07F1010738D08E44DEF82C
:101DA00004E0704533D1C3F3C20E03F007039E4530
:101DB00006D1CEEB020EDEF1000343EB0E0318E07A
:101DC0000BD2724506D39A428CBF4FF0000E4FF0F3
:101DD000010E0DE04FF0000E0AE09A4206D972455E
:101DE00034BF4FF0000E4FF0010E01E04FF0010E36
:101DF000734663B1D8F8AC108E48D8F8BC20D8F838
:101E0000C030009704F080F847F440711DE0082FBF
:101E1000BBD1DAF814A0884FBAF1000F29D008F02E
:101E20003DFF30B3BAF1010F40F05E81D8F8C02019
:101E3000824B7AB9D3F8BC20D3F8BC100B2A00F23D
:101E40003A81FF2915D041F4807189B20F2002F048
:101E5000E9FD0EE0D3F8C0200F2A00F03381D3F85B
:101E6000C0201E2A00F03481D3F8C0302D2B00F0A2
:101E70003581D8F8C030C9F80030FEF7F2BD704B9C
:101E800011605B68002B3EF4A9AE102006F016FB33
:101E9000FEF7A4BEEA680B605B08934205D00F2BE7
:101EA00088BF0F23E36004F067FD02233360FEF771
:101EB000A0BE0993BB084FF00008DFF8B0B10C9347
:101EC000CDF82880DBF800209045BFF467AB0A9B73
:101ED0009A4603F10809D9440A9BDBF80420C3EBB6
:101EE0000A039A426CD9574A1268524505D999F8A3
:101EF000E020402A01D9413A00E000225249096815
:101F00008A4505D299F8C011402901D9413901E02B
:101F10004FF6FF710C98884242D20C9991424AD3F5
:101F2000099A002A3CD099F800200D93A2F13001C3
:101F3000464A12F8210002EB8102517892788DF81E
:101F400038008DF83A2000228DF839108DF83B20AA
:101F50000EA9099A0FA805F0FBFD3D4A9DF83C101B
:101F60000D9B32F811108DF840109DF83D1032F89D
:101F700011108DF841109DF83E1032F811108DF8B7
:101F800042109DF83F1032F8112010A98DF843201F
:101F9000304A1068304A4044126802EB001007E0F3
:101FA0002C4A13A910682C4A4044126802EB001016
:101FB000184405F0A9FD0AF1010A09F101098BE7AE
:101FC00008F10108CDF828A07CE704F0D5FCFFF764
:101FD00073BB224B1A680132072A00D101221A6012
:101FE0001B681F4903601F48026801320D2A026006
:101FF00004D10133072B0CD101230AE00E2A7FF410
:102000005BAB013B08BF06230B6000230360FFF7B7
:1020100053BB0B60FFF750BB05F0D0FBFFF7C6BB0F
:10202000900300200403002087C10008EFC00008CF
:10203000540100209AC10008D4010020101C002087
:1020400054060020A0030020B0010020F8BB0008C7
:1020500020BC00089401002040030020F40100206F
:10206000380300204400002040000020A40300208A
:10207000414B1A680132072A00D101221A601B68FD
:102080003E4903603E48026801320D2A026004D1D5
:102090000133072B0CD101230AE00E2A7FF486AB13
:1020A000013B08BF06230B6000230360FFF77EBBE4
:1020B0000B60FFF77BBB0C293FF4C5AED3F8BC1017
:1020C0000C39BEE6BB69D9077FF5D3AE0D21BAE660
:1020D000BB699A077FF5CDAE0E21B4E6BB695B07FD
:1020E0007FF5C7AE0F21AEE6BAF1020F7FF4C1AEA5
:1020F000FB69002B3FF4BDAED8F8C0002149B0FB0E
:10210000F3F203FB1203002B7FF4B3AE1E4B2268E5
:102110001B68013B9A4228D11C4B1B6863B106F037
:102120005DFB1B4B10F0010F07461A4A4FEA5001A6
:1021300008BF1A4618480FE0184B1B68002B3FF4E5
:1021400098AE06F0FDFC124B10F0010F114A08BFCB
:102150001A4607464108124803F0D6FE132F7FF6B1
:1021600088AEA7F11401002003E0D1F8BC00D1F83B
:10217000C01008F049FA7CE62C0300201003002070
:102180000C000020101C0020D41E00202003002082
:10219000F1C0000876BD00082DC1000870000020C5
:1021A00052C100082DE9F04F9BB007F023FF031F39
:1021B0000790132B02F20C80DFE813F0A20A0A103A
:1021C0000A10FB090A101400D50CEB0C0A100A10B7
:1021D0000A101F0D4E0E980E0C0FD70E8A0FE00C32
:1021E000050D7E0AB54C94F84C304F2B00F05B8502
:1021F00015D8442B00F0438407D8412B00F0E3842A
:10220000432B00F00B8501F0E3BF4D2B00F0208540
:1022100000F20081472B00F0498601F0D9BF612B05
:1022200000F0158609D8532B00F0F282542B00F0F1
:10223000A183522B41F0CC872BE06E2B00F08C82D7
:10224000742B00F0E1856C2B41F0C287022104F170
:102250004D0002F097FE0221064604F14F0002F005
:1022600091FE0221054604F1510002F08BFE02218D
:10227000074604F1530002F085FE914B05EB07255C
:1022800003EBC602556043F8360002F0F5FF01F09B
:102290009FBF022104F14D0002F074FE092801F2F3
:1022A0009787DFE800F00525454E5358A1B2A6AB4D
:1022B000844A0A24936843F4A0039360824B01226A
:1022C0001A6012A803F002F828B90A2002F054FCA0
:1022D000013CF6D105E0BDF848207C4B9A8007F020
:1022E00087FB7A4B1120998806F0E8F801F070BF5F
:1022F000744A0A24936843F4A0039360724B01224A
:102300001A6012A802F0E2FF28B90A2002F034FC99
:10231000013CF6D105E0BDF848206C4BDA8007F0AF
:1023200067FB6A4B1220D98806F0C8F801F050BF4D
:1023300006F0A4FC002801F04B8706F073FC01F0C6
:1023400047BF634B01221A6001F042BF614B01227B
:102350001A6001F03DBF604D604E01242B684FF4C0
:10236000CC6101FB03610B4614F0010F14BF4FF069
:10237000390C4FF0000C14F0020F14BF4FF0390E5F
:102380004FF0000E14F0040F14BF3927002714F08B
:10239000080F14BF39200020002201F822C00132AA
:1023A000B2F5CC7F83F801E09F70D87003F104038D
:1023B000F3D101F0BDFF4FF47A7002F0DDFB4FF472
:1023C0007A7002F0D9FB01344FF47A7002F0D4FB3A
:1023D000102CC3D1002002F019F905F0EFF9404BA1
:1023E00004221A6001F0F4BE022005F01FFF01F084
:1023F000EFBE032005F01AFF01F0EABE394B0022C0
:102400001A6007F013FA01F0E3BE374B01221A609D
:1024100001F0DEBE022104F14D0002F0B3FD022105
:10242000054604F14F0002F0ADFD0221064604F11D
:10243000510002F0A7FD6B1E46EA00242D2B00F28E
:102440007481DFE813F0C50EC50E2E005F00720127
:102450006D008A00A6007201B200C400DA00E60036
:10246000F0000001C50EC50EC50E0F01C50EC50E4C
:102470002601C50E2F017201720172017201C50E93
:1024800055003A01C50E7201460154015A0160011E
:1024900066016C01720172017201720179017F01A2
:1024A0008301124BDB6A9C4201F092860121204697
:1024B00008F0EEF80A4B186001F08ABE54060020BE
:1024C0005401002000240140500100202000002081
:1024D000A8010020900300200C1C0020440F0020C5
:1024E0002800002048000020A0010020E00C00206F
:1024F000B74B1B6B9C4201F06B86204605F0EAF956
:1025000001F066BEB24B1B689C4201F0618600215F
:10251000204604F069F9AF4B04221A6001F058BE5E
:10252000AB4B9A691D4632B1AB4B0021FF220846E6
:102530001A6004F03FFAEA68A54B944208D00F2CC9
:1025400086BF0F22DA60DC6004F016FA04F0FCF8B3
:10255000A04B02221A6001F03BBE9D4D04F0020622
:102560006B68033B012B05D926B1EB699F0701D4AA
:1025700004F0DEF904F0A4F9EC610EB904F0C0F93E
:1025800001236B6204F010F9924B04221A6001F0EF
:102590001FBE914BFF221A6014B10021012001E0FF
:1025A0002146204604F006FAD2E7894B1A6A944283
:1025B00001F00E860C2C02D81C6204F0E5F8874B63
:1025C00000221A60834B04221A6001F001BE804B86
:1025D0005A68944201F0FC85042C09D85C60DB69E0
:1025E0009C0701D404F08CF904F06AF904F038F87F
:1025F000784B04221A6001F0EBBD772C744B8ABF34
:1026000078221C641A6402F075FE04F019F801F0D7
:10261000DFBD762C6E4B8ABF0022DC63DA6303F0E9
:10262000FFFF01F0D5BD6A4D2B699C4290D00F2C65
:1026300086BF0F232B612C6105F0C0F82B696B61FD
:1026400004F01EF884E7624B9A68944201F0C0855A
:10265000022C01F2BD859C6004F002FA04F084F8BB
:1026600001F0B6BDE005E5B248BF6D4229465C48C1
:1026700003F04AFC05F10C03182B01F2A985594B14
:102680005A69954201F0A4855D6105F099FF01F05A
:102690009FBD554B5C6006F01FFA544B01221A6037
:1026A00001F096BD524B1C6006F080F8514A0123A0
:1026B0001360514A136001F08BBD102C444B8ABF4C
:1026C0001022C3F85842C3F8582203F00FFF01F05C
:1026D0007FBD4A4B21464A489C6003F015FCA1B2DD
:1026E000062002F09FF902F08DF901F071BD434B15
:1026F000DC6002F073F901F06BBD404B1C6102F02D
:1027000059F901F065BD3D4B5C6102F043F901F000
:102710005FBD3A4B9C6102F02DF901F059BD374B7A
:10272000DC6102F017F901F053BD22462946354815
:1027300003F0EAFB01F04CBDA1B20F2002F072F9E8
:1027400001F046BD304B1C6001F042BD2F4B1C60B8
:1027500008F084F901F03CBD022104F14D0002F0C3
:1027600011FC0221064604F14F0002F00BFC02218D
:10277000054604F1510002F005FC1EB1012E14D0F3
:1027800001F026BD3F2D01F223850F2801F220859F
:102790000F4B763543F8250003F0CEFE04F0ECF83D
:1027A0000C4B02221A6001F013BD3F2D01F210857F
:1027B0000F2801F20D85064B863543F8250003F0FE
:1027C000A7FE04F0FBFF034B02221A6001F000BDDC
:1027D000E00C00202800002008000020CC01002090
:1027E000DCC10008A40000207000002008030020C5
:1027F0009C0000207C03002014030020D401002052
:10280000EFC1000809C2000804000020AC29002024
:10281000022104F14D0002F0B5FB0B2801F2D8842F
:10282000DFE810F01200D60CD60CD60C1A002A00E5
:1028300037000F000C007B0084009600C34B2E2154
:1028400052E0C24B2E2136E0C14805F08DF9C14B54
:1028500004221A6001F0BCBCBD49BF4808F0FDFD70
:10286000BE4B1B68002B01F0B3841022BA49AA208A
:1028700007F05AFE01F0ACBC2022B549B84808F078
:1028800011FE2022B64940F2471007F04DFE01F03C
:102890009FBC2022AE49B34808F004FEAF4B1B6832
:1028A000002B01F095842022AE4940F2671007F01A
:1028B0003BFE01F08DBC13F8012F1AB12C2A08BF82
:1028C0001970F8E70822A249A74808F0EBFDA34BCE
:1028D0001B68002B01F07C840822A34940F287107A
:1028E00007F022FE01F074BC13F8012F1AB12C2A54
:1028F00008BF1970F8E7082295499C4808F0D2FDF6
:10290000964B1B68002B01F063840822974940F224
:102910008F1007F009FE01F05BBC3F228C49944800
:1029200008F0C0FD06F03EFA01F052BC3F22884993
:10293000904808F0B7FD894B1B68002B01F04884D4
:1029400040228C4940F23F2007F0EEFD01F040BCF0
:1029500005227F49884808F0A5FD8849002381F8B1
:102960006132062201F5177140F2A57007F0DCFD17
:1029700001F02EBC022104F14D0002F003FB0028FF
:1029800041F0268494F84F206421A2F1300394F89A
:1029900050207B4D303A4A434FF47A7101FB0322B9
:1029A00094F851100A23303903FB012194F8522086
:1029B000303A0A4494F85310EA61A1F1300094F8D7
:1029C000541002F26C72303903FB001194F8550078
:1029D000A961A0F1300694F856000131303803FBAC
:1029E000060094F857606861A6F1300794F85860C3
:1029F000303E03FB07662E6194F85960A6F130075C
:102A000094F85A60303E03FB0766EE6094F85B6012
:102A100094F85C40303E303C03FB0643AB6002F070
:102A2000D5FA584B28621B682C460BB105F0C8F844
:102A3000D4F8BC102269524B914204D1D3F8C01093
:102A4000DB68994202D0434B04211960E36903F229
:102A50006C73C4F8B030A3690133C4F8B43063694F
:102A6000C4F8B830236AC4F8AC30E368C4F8BC20BA
:102A7000C4F8C030A368C4F8C43001F0A9BB022177
:102A800004F14E0002F07EFA94F84D508046432D3A
:102A900041F09E83022104F1500002F073FA0221FA
:102AA000C5B204F1520002F06DFA0221C7B204F17E
:102AB000540002F067FA0221C6B204F1560002F097
:102AC00061FAC0B2B8F1000F1AD13F2D28BF3F25DF
:102AD0003F2F28BF3F273F2E284B28BF3F263F28A8
:102AE00028BF3F2083F8445083F8457083F8466040
:102AF00083F8470003F040FF03F09AFE01F068BB43
:102B0000B8F1010F40D13F2D28BF3F253F2F28BFEF
:102B10003F273F2E194B28BF3F263F2828BF3F2085
:102B200083F8485083F8497083F84A6083F84B0073
:102B300083F84C5083F84D7083F84E6083F84F0053
:102B400004F03CFE03F0CEFD01F042BBA2060020E3
:102B5000A306002028000020A4000020881E0020DA
:102B6000D81C0020F91C00201A1D0020231D002065
:102B70003C1C00207C1C00203C0F0020E00C0020AE
:102B8000101C002070000020B8F1020F41F02083DB
:102B90003F2D28BF3F253F2F28BF3F273F2EBD4B4E
:102BA00028BF3F263F2828BF3F2083F8505083F896
:102BB000517083F8526083F8530003F069FF03F00B
:102BC0006FFD01F005BB022104F14E0002F0DAF9BD
:102BD00094F84D600546442E11D0462E41F0F882FF
:102BE000022104F1500002F0CDF9AA4A142303FB9C
:102BF00005235866284603F0F3FC01F0E9BA0221E8
:102C000004F1500002F0BEF9A24A142303FB05238D
:102C1000D865284603F0E4FC01F0DABA022104F199
:102C20004E0002F0AFF994F84D600546442E41F095
:102C3000CF82022104F1500002F0A4F9954B03EB7E
:102C40000513C3F85C01284603F0AEFC01F0C0BADE
:102C5000022104F14E0002F095F994F84D6005460A
:102C6000442E11D0462E41F0B382022104F15000CF
:102C700002F088F9874B03EB0513C3F8940128464B
:102C800003F06EFC01F0A4BA022104F1500002F03E
:102C900079F9804B03EB0513C3F88C01284603F048
:102CA0005FFC01F095BA04F14E00022102F06AF9CE
:102CB00094F84D500446A5F14303162B01F2888287
:102CC000DFE813F044003500860A8700860A860A8A
:102CD0002600860A860A860A860A7400860A860AFA
:102CE000860A860A53001700860A860A860A860A1A
:102CF00062000221684802F045F9684A13689C4264
:102D000081F06682442303FB0424606001F060BA12
:102D10000221614802F036F9604A13689C4281F052
:102D20005782442303FB0424A06001F051BA02211E
:102D3000594802F027F9594A13689C4281F04882A9
:102D4000442303FB0424E06001F042BA022152480C
:102D500002F018F9514A13689C4281F039824423E9
:102D600003FB0424206101F033BA04214A4802F035
:102D700009F94A4A13689C4281F02A82442303FBE2
:102D80000424606101F024BA0221434802F0FAF8F9
:102D9000424A13689C4281F01B82442303FB0424B3
:102DA000002808BF0120A06101F012BA3B4D2B683A
:102DB000984281F00D8244235C4328192022364931
:102DC0001C3008F06FFB2C44002384F83C3001F0E9
:102DD000FFB9324D0221304802F0D4F82B689C42F2
:102DE00006D2442303FB04531864204607F0F8FD81
:102DF0002B4BD3F8B0102B689C4281F0E981204620
:102E000007F098FD01F0E4B9022104F14D0002F051
:102E1000B9F80221064604F14F0002F0B3F802218E
:102E2000054604F1510002F0ADF80221074604F115
:102E3000530002F0A7F81B4B05EB072503EBC60276
:102E4000556043F8360007F0E1FE01F0C1B90221F8
:102E500004F14D0002F096F80221064604F14F00FD
:102E600002F090F80221054604F1510002F08AF8C0
:102E70000221074604F1530002F084F80A4B05EBE7
:102E8000072503EBC602556043F8360007F0BEFE87
:102E900001F09EB9E00C0020A4060020AC2900201F
:102EA000101C0020DC2800206C29002094F84D30F4
:102EB000532B00F00182542B41F08A8194F84E305C
:102EC000732B41F08581B84CDFF8E492DFF8108372
:102ED000B64F002608EB0601D9F80C200AA804F02A
:102EE00037FE9DF82830043637F813301C2E04F8CE
:102EF000013C9DF82930AD4D37F8133004F104043E
:102F000004F8043C9DF82A3037F8133004F8033CE9
:102F10009DF82B3037F8133004F8023CDAD1A44B7B
:102F20000AA8DA68A34904F013FE002004469DF8BD
:102F30002820A14B35F812201A709DF8292035F869
:102F400012205A709DF82A2035F812209A709DF8A8
:102F50002B2035F81220DA70984B18705870987042
:102F6000D87020469549013404F0CEFDE02CF8D10C
:102F7000D22420469049013404F0C6FDDD2CF8D15E
:102F80008F4D0D2600274FF07C08A6F10B002F6017
:102F90006F60AF60884904F0B7FD85F80080304667
:102FA0008549103604F0B0FDED2E85F80B804FF00A
:102FB000000405F10C05E8D1824E07233268824DEA
:102FC000B2FBF3F3C3EBC303D31A804A85E81800BE
:102FD000D35CA946C3F10202AA60C3F10C0302222A
:102FE00093FBF2F30120EB6005F056FB32230493D0
:102FF000012303940293089601F0EAF9744D002628
:1030000006F0F8FF09280DD195F84C30472B09D16F
:1030100095F84D30542B05D16D4B93F84E30712BF4
:1030200008D139E10A2001F0A7FD049B01369E4238
:10303000E6D140E06D2B35D007D8642B2FD06C2B18
:1030400039D1614EF568013D07E0722B02D0752B36
:103050000FD030E05C4EF56801352A46B1687068E3
:1030600005F0E2FA0028C7D0002005F015FBF56056
:1030700011E0554B5D68DA68032D14BF013500255A
:103080009968284605F0D0FA0028B5D0002005F050
:1030900003FB4D4B5D60012005F0FEFAACE705F047
:1030A00037FBA9E705F034FB28B101F091F9322094
:1030B00001F062FDF6E705F02BFB00289CD1424AA7
:1030C0003F4FD36811680693536801F1010B03EB7E
:1030D000810396683F490C2201EB830A02FB06F349
:1030E0005FFA8BFB05934FF00108069B08FA00FE80
:1030F000C518059B5919394400231AF803C01CEA66
:103100000E0F0AD006EB030CBCF10D0F05D80B2DEA
:103110009CBF02FB03FC01F80CB00133042BECD183
:1031200001300428E1D100260C2501273946284624
:1031300005F068FA002863D001370B2FF6D1264B33
:103140004FF00C0808FB0533A8462F010593FB1C24
:103150000693B8F1000F45D0DDF818A0DDF814B0E3
:1031600001271BF8012F39468BF80C2040460992A5
:1031700005F048FA28B1099A184B511E03EB81015A
:1031800000E00E495046013704F0BEFC0B2F0AF157
:10319000010AE6D1059B08F1FF380C3B0593069B1D
:1031A000103B0693D5E700BFC51D002020BC0008DA
:1031B000E00C0020CDC10008F0060020D01E002049
:1031C000E01D00204C01002098240020D5C10008FB
:1031D0005406002070D30008D41D0020C41D002018
:1031E000F7C300080327B14B38463B4403F8028C71
:1031F000AF49013704F088FC0D2FF4D101360135B9
:1032000015F1FF3591D216B3022E05D0032E05D04D
:10321000012E06D1282306E0642304E04FF49673C0
:1032200001E04FF49663029A03FB0244039B33448C
:10323000092B039309D9029B01330293049B092BA9
:1032400084BF053B04930023039301F0C1F8089B5E
:1032500001201A680723B2FBF3F3C3EBC303D31AAD
:103260000022C9F80420934AC9F80030D35CC3F1A6
:103270000202C9F80820C3F10C03022293FBF2F307
:10328000C9F80C3005F008FA09F1040007C805F088
:10329000CBF900287FF4B0AEC82001F06DFC2246C7
:1032A000854912A808F08EF812A804F05DFC834B43
:1032B00004221A6000F08CBF814B93F84E30732BC0
:1032C00040F086877F4D804E2846F2687F4904F0A3
:1032D0003FFC7F4C2A787F4B34F812207E491A70CD
:1032E0006A78DFF81CA234F81220D3465A70AA7804
:1032F00034F812209A70EA78784D34F81220284673
:10330000DA70F26804F024FC2A78754B34F8122045
:1033100074491A706A78884634F8122001205A706D
:10332000AA7834F812209A70EA7834F81220DA7009
:103330006D4A0023137053709370D3706B4A0B6007
:103340001E2313606A4B0292994618600023FF20E7
:10335000002203EB0A0188540132102AFBD11033FA
:10336000E02BF5D1FE238BF82230624B03221A703A
:10337000614B02251D700024604B20461D608BF8B8
:10338000324005F0DBF9012005F0D8F9284605F0B8
:10339000D5F920465449013404F0B6FBE02CF8D1AD
:1033A0000326544B1C78544B1D7823462F461A0194
:1033B000D01948490493039204F0A6FB039A049B96
:1033C0005244D25D032A0AD8DFE802F0020406085C
:1033D000013B04E0013302E0013F00E00137484ACD
:1033E00018010244D25DFE2AE1D13844394904F083
:1033F0008BFB444A444B002717F802E0F85C38493D
:1034000000EB0E1001370492039304F07DFB032FB1
:10341000039B049AF0D100F0DBFF0027029B1A689F
:10342000974231D206F0E6FD09281BD1244B93F8D0
:103430004C20472A16D193F84D20532A12D193F8E5
:103440004E30712B00F0A58604D8642B17D06C2B5E
:103450000DD019E0722B0DD0752B15D1711E4E4277
:103460004E4111E00A2001F087FB0137D6E7032E19
:1034700015D14BE0022E00F06C86032646E0002EAC
:1034800000F08786012608E0022E09D0032E3DD0E9
:10349000012E02D0013C621C04E0013437E0022618
:1034A000013D6B1C00F0758631E000BFE01D00207F
:1034B000D01E0020D5C100082FC20008280000201F
:1034C0005406002010070020E00C0020F3C3000881
:1034D00020BC0008E8060020D1C10008F406002046
:1034E00004070020F80600200C0700202807002011
:1034F000FC0600202D0700202C07002008070020D4
:10350000B1240020BC1D00209C25002001350D2C7D
:1035100000F33F860F2D00F33C860BEB041253198A
:10352000525DFF2A40F03586674A022E1470674AC2
:10353000157006D0032E06D0012E14BF01220022E2
:1035400002E0032200E002221A70614B0020614A6F
:10355000125C944203D1C25C954200F0FD850130BB
:103560000328F4D122010AEB02035B5D032B0BD885
:10357000DFE803F002040608013C05E0013403E043
:103580006B1E02E06B1C00E02B4620010BEB0001E0
:10359000CF18C95CFE2901D01D46E3E7FF243C702B
:1035A0004D4C1844224451554C4904F0ADFA00F0FA
:1035B000E0BD0A220AA94A4807F0DEFE494B4A4A02
:1035C0005B6902444FF4616101FB03231AAC44F8C8
:1035D000203D204607F0F0FB03690546DA1E052A68
:1035E00040F2CD85022B0CD18269C3689B1A182B3F
:1035F00014DD002A40F0C3858368012B00F3BF85EA
:103600000CE0092B0AD18269C3689B1A182B40F37E
:10361000B6851AB98368022B40F3B185334C6B69C8
:10362000E3612B69A361EB68636129696A69E868F2
:1036300002F26C72013101F0C9FC20622B6AA362B4
:10364000AB6823616B68E3602B68A360284B1B6841
:103650000BB104F0B5FAD4F8BC102269234B9142A7
:1036600004D1D3F8C020DB689A4204D004F04AFFAA
:10367000204B04221A60E3691F4A03F26C73C4F8FA
:10368000B030A3690133C4F8B4306369C4F8B8300A
:10369000236AC4F8AC302369C4F8BC30E368C4F8CA
:1036A000C030A368C4F8C430D4F8C430C3F56E6326
:1036B0000C33136000F08CBD012200210F4806F08E
:1036C000D3FB00F085BD00BF2D0700202C07002094
:1036D0009C250020BC1D0020B12400200C070020E8
:1036E000A0060020A40000208081557C101C002032
:1036F00070000020280000201C0000203BC20008B1
:10370000B24AB3490AA807F05DFEB049B14802F0D9
:10371000FBFB01F067FE0121002004F0CFFEAE4B61
:103720000120196804F0CAFEAC4BAD4DD988AD4CF0
:103730001D2004F0C3FE2968022004F0BFFEE16AE8
:10374000032004F0BBFE216B1E2004F0B7FE2168AD
:10375000042004F0B3FE04F0CDFEE169072004F07C
:10376000ADFEA169082004F0A9FE04F0BBFE61686B
:103770000B2004F0A3FE216C0C2004F09FFEE16BF3
:103780000D2004F09BFE984E21690E2004F096FE59
:10379000A1680F2004F092FE7188102004F08EFEC4
:1037A000B188112004F08AFEF188122004F086FE10
:1037B0008E4B132059690029BDBF494289B241F49B
:1037C000807189B204F07AFE894B1420196804F0E4
:1037D00075FEA968152004F071FE6968854D1620F4
:1037E00004F06CFE6968172004F068FE2968182050
:1037F00004F064FED4F858121F2004F05FFE7E49E6
:10380000012004F04BFE7549022004F047FE774981
:10381000042004F043FE7949052004F03FFE784976
:10382000062004F03BFE7749072004F037FE764976
:10383000082004F033FE7549092004F02FFE744976
:103840000A2004F02BFE73490B2004F027FE654D7F
:1038500004F058FE04F08AFE6F49012004F070FE67
:103860006E49022004F06CFE2E460024726D214643
:103870006B4804F081FEF26D21466A4804F08EFE2A
:10388000326E2146684804F089FE726E2146674810
:10389000013404F083FE0D2C06F11406E6D1514EDE
:1038A0000024D6F858212146614804F065FED6F878
:1038B0005C2121465F4804F071FED6F86021214664
:1038C0005D4804F06BFED6F8642121465B48013464
:1038D00004F064FE032C06F11006E2D10024D5F8B2
:1038E00088212146564804F047FED5F88C21214610
:1038F000544804F053FED5F890212146524804F074
:103900004DFED5F8942121465048013404F046FE7E
:10391000052C05F11005E2D14D4E2E20354655F807
:103920001C1B04F0CBFD3746002433689C4280F01A
:10393000A38055F8182C2146464804F02FFE3B681A
:103940009C4205D255F8142C2146434804F026FE2B
:1039500033689C4205D255F8102C21463F4804F0AC
:103960001DFE33689C4205D255F80C2C21463C487C
:1039700004F014FE33689C420BD235F8083C394AF7
:1039800000933949234612A807F01CFD12A804F041
:103990006BFD33689C4205D255F8042C2146334810
:1039A00004F0FCFD33689C4204D22A46214630488C
:1039B00004F0E2FD33689C4204D26A6A21462D4835
:1039C00004F0ECFD01344435AFE700BF9006002061
:1039D00043C2000849C20008881E0020101C0020B5
:1039E00070000020E00C002020000020A400002037
:1039F000200300209C00002073BD0008D81C00207C
:103A0000F91C00201A1D0020231D00203C1C002052
:103A10007C1C00203C0F0020280D0020300D0020D1
:103A200061C2000864C2000867C200086AC20008D8
:103A30006DC2000870C2000873C2000876C2000898
:103A400079C200087CC200087FC2000882C2000858
:103A5000AC29002085C2000888C200088BC200087B
:103A60008EC2000891C2000894C200089FC20008DC
:103A7000A2C20008A5C20008B54D002405EBC4038E
:103A80005B6855F83420B3490192C3F307220092D2
:103A9000DBB2224612A807F095FC013412A804F00C
:103AA000E3FC082CEAD1AC4D002405EBC4035B68B1
:103AB00055F83420A9490192C3F307220092DBB2E2
:103AC000224612A807F07EFC013412A804F0CCFCB8
:103AD000082CEAD1A24CA349002004F0C1F8A24965
:103AE000012004F0BDF82168202004F0E7FC6168A3
:103AF000212004F0E3FCA168222004F0DFFCE1684F
:103B0000232004F0DBFC2169242004F0D7FC616948
:103B1000252004F0D3FCA169262004F0CFFCE16944
:103B2000272004F0CBFC914D002405EBC4035B6817
:103B300055F834208E490192C3F307220092DBB27C
:103B4000224612A807F03EFC013412A804F08CFCB7
:103B5000082CEAD101F046FC0AA804F005F8854BD0
:103B600004221A6034E38449844802F0CDF9824883
:103B700003F0FAFF7F4B04221A6029E37E49804854
:103B800002F0C2F97C4803F0EFFF7A4B04221A607E
:103B90001EE37C4B12A993F84C2093F84D307A48E1
:103BA0008DF8493000238DF848208DF84A3002F016
:103BB000ABF9764B12A91A68754B7648C3F8A82260
:103BC00006F098FC04E36F4B12A993F84C2093F88D
:103BD0004D3071488DF8493000238DF848208DF81C
:103BE0004A3002F091F9694B12A91A68684B69488A
:103BF000C3F8A82206F07EFCEAE2684D684CD5F8CE
:103C000000800295DFF8C0B1DFF8C0A1654DB8F1C2
:103C1000000F0DD0D4F80090DBF80070DAF80060E7
:103C2000554CDFF894A1DFF898B1DFF8648148E0E3
:103C30000221514801F0A6F9554E8146306002211B
:103C4000594801F09FF9042107467060574801F078
:103C500099F904212060564801F094F90421CBF829
:103C60000000544801F08EF9534B07FB09F1C3F8EB
:103C70000080524A524BCAF800001160C5F800801B
:103C8000C3F80080B9F1000F00F0C880002F00F0E9
:103C9000C78000224B48114606F0E6F80120C0E03C
:103CA0002A684A4511DADF2A0ADC3E4B511C1960AA
:103CB00020460221039201F065F9039A42441072F2
:103CC00002342278002AEBD125E0DAF80020BA424B
:103CD0000EDADF2AF4DC511CCAF80010204602215B
:103CE000039201F04FF9039A424482F8E800E7E7B3
:103CF000DBF80020B242E3DADF2AE1DC511CCBF82A
:103D0000001020460221039201F03CF9039A42443C
:103D100082F8C801D4E7184B9C420AD0264A296889
:103D200012684F441144264A3E4412680A4496429F
:103D3000AFD122492A68086800210E46144C9042EF
:103D400046DDDF2A44DC01321119CE710121F6E78C
:103D5000DC280020A8C200086C290020BAC2000894
:103D6000D4010020B80E0020F80E002054010020DD
:103D7000CCC2000828000020A0060020DEC20008F7
:103D8000F3C200085406002011C3000824030020D9
:103D9000A403002029C300083BC300082407002017
:103DA0002007002018070020A2060020A4060020FB
:103DB000A8060020AC060020EC060020E406002047
:103DC000000700208FC000083007002014070020E3
:103DD00001B12A6000210E469C4A9D4C136898420E
:103DE00007DDDF2B05DC0133191981F8E7600121BC
:103DF000F5E701B1136000210E46964A944C136812
:103E0000984207DDDF2B05DC0133191981F8C76102
:103E10000121F5E701B11360022002E0484600E00D
:103E20003846029B029A1B680133136030B98A48F6
:103E300001F0E0FA894801F0DDFAC9E1022840F01A
:103E4000C781874B01225A63864B1A68864B1B68D1
:103E50001344864A1360BBE10221854801F092F8C1
:103E600002210446834801F08DF80E2C024638D119
:103E7000102836D10221804801F084F87F4B7F283A
:103E80000146186029D802217D4801F07BF87D4C5D
:103E9000022120777C4801F075F8022160777B4889
:103EA00001F070F802212060794801F06BF80221DE
:103EB000A060784801F066F80221E060764801F0E1
:103EC00061F802216061754801F05CF80122A0618F
:103ED0007349744805F0C8FF7AE1734802F014F89A
:103EE00076E12146714802F00FF871E10221604845
:103EF00001F048F8044602215E4801F043F8614DA4
:103F000004EB44062E4486F83E0402215A4801F090
:103F100039F8022186F83F04594801F033F8574B2D
:103F2000621C1B6886F840049A4209D2604912A8B4
:103F300007F048FA002212A95A4805F095FF47E118
:103F4000474B2A681968914203D300221A6002F095
:103F50003BFC2A685749013A12A807F033FA0122BC
:103F600012A9554805F080FF32E10221404801F0D6
:103F700009F80446434DDFF85481EF684FEA8009A1
:103F8000002606F12700BE4208EB400008D00221BF
:103F900000F0F8FF06EB09032B4498770136F0E7B1
:103FA000AA68631C9342454A126809D2444912A880
:103FB00007F008FA002212A9424805F055FF07E170
:103FC0003C4912A807F0FEF9012212A93E4805F06B
:103FD0004BFFFDE00221264800F0D4FF02210446F9
:103FE000244800F0CFFF274DDFF8E08005EBC40345
:103FF000AF6983F85E024FEAC409002606F1280083
:10400000BE4208EB400009D0022100F0BBFF06EBE6
:104010000903C0B22B4483F85F0280B96A69631C4C
:1040200093420ED2174A2649126812A8013A07F0A5
:10403000C9F9002212A9204805F016FFC8E0013690
:10404000DCE7074B186804F097FCC1E0EC060020A1
:10405000A4030020000700205CC30008EFC0000894
:10406000E00C0020D0010020240300208C0300205D
:10407000A0060020A2060020A40600201C070020A5
:10408000A6060020D41E0020A8060020AA060020B4
:10409000AC060020AE060020B0060020B2060020CC
:1040A000BFC300086FC3000877C3000896C30008A9
:1040B000F0C30008BAC30008C1C30008C01D002037
:1040C000C6C30008CEC30008D3C3000854060020AE
:1040D0000221414800F056FF022104463F4800F00B
:1040E00051FF3F4DDFF8208105EBC403AF6983F832
:1040F0007E004FEAC409002606F12800BE4208EB04
:10410000400009D0022100F03DFF09EB0603C0B2D8
:104110002B4483F87F0078B96A69631C93420DD2FF
:10412000304A3149126812A807F04CF9002212A94E
:104130002E4805F099FE4BE00136DDE72C4801F0F2
:1041400059F92C4801F056F9254B0122C3F8C02536
:104150003EE00026FFF79EB9D8F80020D9F80030DD
:104160001344254AC8F8003013680133136004F083
:10417000E5FA214B1B68DC2B7FF613A919E0129B93
:10418000204603F56163129306F016FE0546FFF71D
:1041900045BAC82000F0F0FCD8F80020174912A852
:1041A00007F010F912A803F0DFFC154B04221A6087
:1041B0000EE0029B1B680A2B7FF6C8A8D9F80020E6
:1041C0000A3B0132C9F800200E4A1360FFF7BEB85F
:1041D00007981BB0BDE8F08FA0060020A2060020C3
:1041E000D41E0020C01D0020C6C30008D3C3000891
:1041F000D8C30008EFC0000808070020E8C3000883
:1042000028000020280700205406002010B50B4984
:104210000B680A4A002BFBD0094B0A4C1868411C5A
:104220002029205C196004BF00211960C0B272B659
:104230001368013B136062B610BD00BF4407002045
:104240006007002090070020074A02F5907112F8DD
:10425000013F98074CBF43F0040323F004038A4254
:104260001370F4D1704700BFBC0B00200B7810B561
:1042700053430F24B3FBF4F3DBB203700C7814B197
:104280000BB9012303704B780F245343B3FBF4F3B2
:10429000DBB243704C7814B10BB9012343708B78B7
:1042A0000F245343B3FBF4F3DBB283708C7814B167
:1042B0000BB901238370CB785A430F23B2FBF3F27F
:1042C000D2B2C270CB7813B10AB90123C37010BD4A
:1042D0000B4B00EB4000184490F83F3490F83E142C
:1042E00090F8402403EB0111064B0B4412F1FF320E
:1042F00005D313F8011F41F002011970F6E770476A
:10430000D41E0020BC0B0020084B10B503F59070A4
:10431000012413F8011F01F00201002901F0FF023E
:1043200018BF224683421A70F3D110BDBC0B002087
:10433000034B1B6B1BB14FF4CC7004F039BB7047BF
:10434000E00C002010B40F4B0F4C1A684FF4CC63F4
:104350005A43131902F5F07222440478043383F8A7
:104360007C44447883F87D44847883F87E44C47820
:1043700083F87F449342F0D111B110BCFFF7D8BF4E
:1043800010BC70470C1C0020440F002007B50E4ADB
:104390000E4B117833F811108DF80410517833F862
:1043A00011108DF805109178D27833F8111033F888
:1043B00012308DF80610014601A88DF80730FFF77E
:1043C000C1FF03B05DF804FB6800002020BC0008BA
:1043D0004FF4907004F0ECBA7FB582494B6A002B21
:1043E00032D000234B628B627F4B142218787F4CB3
:1043F000B0FBF2F20AB900B101225D78226014220A
:10440000B5FBF2F27A4C0AB905B101229E7822601E
:104410001422B6FBF2F2774C0AB906B101222260EF
:10442000DC781423B4FBF3F3734A0BB904B1012312
:104430001360724B00221A705A709A70DA70704BC7
:1044400018705D709E70DC708C6A002C40F0C88023
:10445000664B1A68BAB16A4803789A4202D89B1A26
:10446000037001E00BB10470012364485E4C0578D1
:1044700024782A44A24201D8027002E0A54203D067
:104480000470012300E01346594A1268BAB15C4C2B
:104490006078824202D8801A607002E010B1002376
:1044A000637001235548504C457864782A44A242F1
:1044B00001D8427002E0A54201D0447001234D4A68
:1044C0001268BAB14E4CA078824202D8801AA0700D
:1044D00002E010B10023A37001234848424C8578C4
:1044E000A4782A44A24201D8827002E0A54201D0F9
:1044F00084700123404A1268BAB1414CE07882428C
:1045000002D8801AE07002E010B10023E3700123AA
:104510003A48354CC578E4782A44A24201D8C270A2
:1045200007E0A54201D0C47003E013B901238B62F8
:1045300056E02D4A334B1178334D33F811100024D7
:104540008DF80410517833F811108DF8051091781A
:10455000D27833F8111033F812208DF806108DF848
:104560000720264A117833F811108DF80810517879
:1045700033F811108DF809109178D27833F81110B2
:1045800033F812208DF80A108DF80B201C4A117890
:1045900033F811108DF80C10517833F811108DF894
:1045A0000D10917833F811108DF80E10D27833F881
:1045B00012308DF80F30635D022B01D102A906E0A5
:1045C000012B01D103A902E0032B03D101A920464D
:1045D00003F09AFA0134B4F5907FECD1FFF7F8FEBE
:1045E00004B070BDE00C0020000000205C0700203B
:1045F0005007002058070020BC0700203C0700207F
:10460000B407002020BC0008BD0B002073B5264B6A
:1046100006461A680AB901261E60244A244B1178FE
:10462000002433F81110234D8DF8041051788DF8C3
:10463000004033F811108DF801408DF80510917885
:10464000D27833F8111033F812308DF806108DF847
:1046500007308DF802408DF8034015F8013F9B07A5
:1046600007D501A9204603F04FFA2B7843F0010348
:1046700006E06946204603F047FA2B7823F0010351
:104680000134B4F5907F2B70E7D10B4C2EB16368E9
:104690001BB90120FFF77AFE01E0FFF799FE012325
:1046A000A36202B070BD00BF8C0700200000002094
:1046B00020BC0008BC0B0020E00C002010B5054C0D
:1046C000636A1BB100206062FFF7A0FF0123A362B1
:1046D00010BD00BFE00C002073B50546174A184B0B
:1046E0001178002433F81110164E8DF8041051780B
:1046F0008DF8004033F811108DF801408DF8051049
:104700009178D27833F8111033F812308DF8061002
:104710008DF807308DF802408DF80340A35D2046E8
:104720002B4214BF01A96946013403F0EDF9B4F539
:10473000907FF3D1FFF74CFE02B070BD0000002067
:1047400020BC0008BD0B0020F8B57A4C7A4D636A96
:104750005BB106F0B9FC794B0340002BBEBF03F1FF
:10476000FF3363F0030301332B602B68032B00F24C
:10477000DF80DFE803F0023670A4636A6D4A23B17C
:104780000023536293626E4A1360A26A002A40F0CB
:10479000CF806B4B18680F2854D86A4E471CB6461A
:1047A0001F6093190021151A6C188F42744404D8A5
:1047B00014F8014C14F0010F02E0E47B14F0020F36
:1047C0001C7801F1010114BF44F0040424F0040436
:1047D00010291C7003F10103E6D11032E02AE0D168
:1047E0002BE0636A534A23B1002353629362564A13
:1047F0001360A26A002A40F09B80534B18680F2870
:1048000020D8461C4F4F1E601130D4192346314624
:104810000F291AD8655C15F0010F1D7801F101010F
:1048200014BF45F0040525F0040581421D7003F115
:104830000103EDD11032E02AE7D10420BDE8F840B1
:10484000FFF74ABF0123A362F8BD651815F8105C95
:1048500015F0020FE1E7636A364A23B10023536281
:1048600093623A4A1360A26A002A61D1374B1D68ED
:10487000DF2DE7D805F1100632481E6002F1100462
:10488000131827189642A3EB050104D811F8101C41
:1048900011F0010F03E091F8D01011F0020F197818
:1048A00003F1010314BF41F0040121F0040103F8F6
:1048B000011CBB42E6D1E02C2246DFD1BDE7636A92
:1048C0001C4A23B1002353629362214A1360A36AF6
:1048D00073BB1F4B1868DF28B4D800F11002194CC5
:1048E0001A60A0F1E00E1022A2F110030EEB0201FB
:1048F0002344214417191618DF2E04D891F8E050EC
:1049000015F0010F02E00D7815F0020F1D7803F18C
:10491000010314BF45F0040525F0040503F8015C0C
:104920009F4201F10101E7D11032F02ADCD184E786
:10493000F8BD00BFE00C0020340700200300008019
:1049400084070020BD0B002038070020B807002096
:104950005407002007B5064B02A9DB69012201F8C4
:10496000043D40F2872005F0DFFD03B05DF804FB55
:10497000D401002007B5064B02A99B69012201F86A
:10498000043D40F2862005F0CFFD03B05DF804FB46
:10499000D401002007B5064B02A95B69012201F88A
:1049A000043D40F2852005F0BFFD03B05DF804FB37
:1049B000D401002007B5084B02221B6901A98DF81C
:1049C000043040F283201B0A8DF8053005F0ACFD61
:1049D00003B05DF804FB00BFD401002007B5084B0D
:1049E0000222DB6801A98DF8043040F281201B0A05
:1049F0008DF8053005F098FD03B05DF804FB00BFAD
:104A0000D401002007B5064B02A99B68012201F8DA
:104A1000043D4FF4207005F087FD03B05DF804FB02
:104A2000D40100202DE9FF417E238DF80430FF23BF
:104A30008DF8053006230A0A8DF8063000238DF81C
:104A400009208DF807008DF808308DF80A10012232
:104A500001AD515D01320B44072A9BB2F9D15B4293
:104A60009BB21A0A8DF80C30144EEF238DF80D30DE
:104A7000002334469C461249DFF84CE011488DF87B
:104A80000B2015F8038032681F2AFCD80F687A1CA7
:104A90001F2A0A600EF8078088BFC1F800C072B6EE
:104AA00022680132226062B60268013342F080025D
:104AB0000A2B0260E5D104B0BDE8F0814C0700206C
:104AC000480700200C4800406407002038B5224CFD
:104AD00040F22551204603F0A5F9B8B14FF6DF7337
:104AE00023801E4BA288196892B21F290ED81C4938
:104AF0001C4D0C68D2B2601C1F282A5588BF0022AA
:104B0000086088BF0A601A6801321A60124C40F2CD
:104B10002771204603F086F9E8B14FF67F73124AF9
:104B20002380136893B11149114C0B68581C20283D
:104B3000086008BF0020E35C08BF08601168DBB2B2
:104B400001391160044A9BB2938038BD094A136849
:104B500023F08003136038BD004800404407002064
:104B6000B0070020900700204C07002040070020DD
:104B7000640700200C480040044B1B685843044B5A
:104B800018601A68002AFCD1704700BF8C00002012
:104B90001C290020F0B58D4B85B01B68092B5ED910
:104BA000FFF734FBC0B27E288DF8040057D1FFF721
:104BB0002DFB8DF80500FFF729FBC0B206288DF804
:104BC00006004CD1032401ADFFF720FB285501342A
:104BD0000A2CF9D100230122A95C01320B44072AD7
:104BE0009BB2F9D19DF80B109DF80C205B429BB253
:104BF00042EA0122934202D0754801F085F99DF8FE
:104C00000D30EF2B2BD19DF807309DF809109DF842
:104C10000A203D2B42EA01246E4E6F4D6F4820D191
:104C20007768052F05D12F683D2F1AD10768BC4240
:104C300017D1FF232B604FF6FF73694C694A03605D
:104C400011782378994240F26E81674A0F20D15C37
:104C500041F40071FFF7E6FE237801332370002052
:104C600063E12B603A3B0460132B00F21781DFE80D
:104C700013F0140023002C002F00320035005500E3
:104C8000670069006D007000850095009B009E0024
:104C9000A100A400A700AA001101012C01D15348D2
:104CA00002E0022C06D1524800F0A4FB514800F06B
:104CB000A1FBF3E05048F7E7012C01D14F48F3E79F
:104CC000022C0CBF4E484F48EEE721464E48E3E029
:104CD00021464E48E0E021464D48DDE00CB94D4804
:104CE000E2E7E00705D54C4800F084FB414800F0BE
:104CF00081FBA10705D5494800F07CFB3D4800F049
:104D000079FB620705D5464800F074FB394800F08E
:104D100071FB230740F1C2804248C5E7062C0DD83D
:104D2000DFE804F00406080C0C0C0A003E48BBE760
:104D30003E48B9E73E48B7E73E48B5E73E4802E09F
:104D40003E48B1E73E4801F0DFF8A7E021463D4884
:104D5000A2E0052C10D8DFE804F0030507090B0DCD
:104D60003948A1E739489FE739489DE739489BE72B
:104D7000394899E7394897E7394895E7032C0BD824
:104D8000DFE804F00204060836488DE736488BE772
:104D9000364889E7364887E7364885E7214636486A
:104DA00001F0B2F8746079E02146344874E021469D
:104DB000334871E0214633486EE0214632486BE0CB
:104DC0002146324868E02146314865E0440700202A
:104DD00013C40008D40100204C0000205000002023
:104DE000D9280020D8280020482800202EC40008F8
:104DF0004BC40008EFC0000866C4000888C400085F
:104E0000A4C40008BEC40008E8C4000814C5000813
:104E10003EC5000866C5000880C500089BC500089F
:104E2000B4C50008CEC50008E5C50008FEC50008E9
:104E30001EC600083BC6000854C600087DC6000810
:104E40008FC60008ACC60008C2C60008D6C6000857
:104E5000E7C60008F9C600080BC7000820C700080D
:104E600032C7000847C7000866C7000885C70008A2
:104E7000A4C70008C3C70008E3C70008FCC70008B0
:104E800019C8000838C8000853C800086AC80008D4
:104E900087C800082146264801F036F83568254FB6
:104EA0000124002D3DD124483C6000F0A3FA2348A2
:104EB00000F0A0FA29464620FFF7B4FD6420FFF772
:104EC0005BFEFFF767FE02211D4801F01DF802217D
:104ED0000920FFF7A7FD6420FFF74EFEFFF75AFEFB
:104EE0002946184801F010F829460720FFF79AFDD7
:104EF0006420FFF741FEFFF74DFEBD6812482946CA
:104F000001F002F8A9B20620FFF78CFD6420FFF73C
:104F100033FEFFF73FFE0D4800F06CFA074800F043
:104F200069FA204601E00020107005B0F0BD00BF16
:104F3000A6C80008D4010020C1C80008EFC00008BE
:104F4000E2C8000804C90008EFC100081AC9000837
:104F5000054B1A68054B012A18BFB0FBF2F0186028
:104F60001A68002AFCD17047940000201C290020F8
:104F7000034B1A6812B11A68013A1A60704700BFF1
:104F80001C29002030B50446054600202B1BDBB24F
:104F900099421AD92378C3B115F8013BA3F1300225
:104FA000D2B2092A0DD9A3F14102052A01D8373B13
:104FB00004E0A3F16102052A02D8573BDAB200E00F
:104FC000002202EB001398B2E0E730BD172302295C
:104FD00003FB01F110B54FF00903D8BF144691FB54
:104FE000F3F1D8BF02F1FF324FF0040392FBF3F369
:104FF000C8BF941E20440844043018446FF0630373
:1050000092FBF3F318444FF4C87392FBF3F202449B
:10501000072092FBF0F0C0EBC000101A10BD00009A
:10502000F0B52B4FC0F30725C4B24FF4C876642007
:10503000002A20DD6B1E012D144457F823300DD1BA
:105040008A073BD191FBF0F200FB121222B991FBCF
:10505000F6F206FB12128ABB01332FE09C422BDDD5
:1050600001350C2DA4EB030303F1FF32C4BF013162
:1050700001250124DCE7164F64204FF4C876DAB12D
:105080002244002A20DC013D04BF0C2501F1FF3140
:105090006B1E012D57F82340F1D18B07EFD191FB07
:1050A000F0F300FB13132BB991FBF6F306FB13137C
:1050B000002BE4D10134E2E7224605E0A342FBDA0B
:1050C000E21A013A0225D4E742EA0520F0BD00BF0A
:1050D00080CA0008F8B5644B05461A68824200F0A1
:1050E000C180624C6422186095FBF2F2132395FB99
:1050F000F4F490FBF3FE5E491444014003FB1E0EE2
:10510000261D072095FBF0F796FBF0F0D200C0EBD0
:10511000C000361A02F10D00192290FBF2F2A21A19
:105120001E200F3292FBF0F300FB1323132404FB29
:105130000E3393FBF0F200FB12330029BEBF01F1E6
:10514000FF3161F003010131C7EBC7071D2BA5EB50
:10515000070706D01C2B05D1BEF10B0FA8BF1B23E0
:1051600000E01C2303EB430201EB4701114406EB73
:105170004106072196FBF1F1C1EBC101761A3344D8
:10518000163303241F2B02DD1F3B0134FAE743EAE9
:10519000042440F20113374E40F6194773604FF470
:1051A0008373B36040F20153F36040F6032333612D
:1051B00040F61A436FF02F0229462046B36177610B
:1051C000FFF72EFF6FF00102F06129462046FFF73E
:1051D00027FF0022306229462046FFF721FF0122E7
:1051E000706229462046FFF71BFF2722B06229463E
:1051F0002046FFF715FF3122F06229462046FFF7CF
:105200000FFF3222306329462046FFF709FF3C2278
:10521000706329462046FFF703FF2A46B0630C213E
:105220001920FFF7D3FE6FF014020446121A294624
:105230003846FFF7F5FE6FF00D02F063121B2946AA
:105240003846FFF7EDFE6FF006023064121B294668
:105250003846FFF7E5FE6242706429463846FFF79C
:10526000DFFEB064F8BD00BF8807002070FEFFFFBE
:10527000030000802029002030B5124B87B0186849
:10528000E8B1114D0DF1010200233C205C59591980
:1052900002F8014C4C680833B4FBF0F1117000FBCC
:1052A0001141402B517002F10302EFD118226946DF
:1052B0004FF4227005F038F9003018BF012007B014
:1052C00030BD00BF881E002054010020074A13682B
:1052D00023B107490B6813F0020301D11846704748
:1052E000CB6C038000231360012070475001002025
:1052F0000024014010B50B4B0B4C1B6C0B4873B1D9
:10530000142202FB03F10A4AB2FBF1F22260094ABD
:10531000D2F8C42053433C22B3FBF2F300E02360F5
:10532000036010BDE00C00201C0800205C0300207E
:10533000A0BB0D00101C002038B5224C40F22551B6
:10534000204602F06FFDB8B14FF6DF7323801E4B8D
:10535000A288196892B2FF290ED81C491C4D0C680E
:10536000D2B2601CFF282A5588BF0022086088BF7F
:105370000A601A6801321A60124C40F22771204606
:1053800002F050FDE8B14FF67F73124A2380136894
:1053900093B11149114C0B68581C8028086008BF54
:1053A0000020E35C08BF08601168DBB201391160BE
:1053B000044A9BB2938038BD094A136823F08003E6
:1053C000136038BD003801401C0300200C08002089
:1053D000F8010020FC090020580900206C09002079
:1053E0000C380140024A1368002BFCD1704700BF03
:1053F000FC09002010B5441E14F8010F10B104F090
:10540000D1FAF9E710BD00002DE9F84F4FF6FE7410
:105410004FF080437E4D1C8203F586339A682868DE
:10542000002840F051817B4902F008020B680E46CB
:105430001BBB79481AB903680133036044E1026871
:105440009AB101220A6075490A6075490B60754975
:105450000B6075490B6075490B6075490B60754BA6
:10546000FF211960744B1A702EE1744A1368A3422D
:1054700000F22A810133136026E1684FD7F800C09B
:10548000BCF1000F4DD06C4C5AB123780133DBB224
:10549000E92B237040F2E4805F4B086018602070B5
:1054A000DEE05D4A13689046A3F11F010A2903D884
:1054B0002278063A042A1DD9A3F15E02532A07D89E
:1054C0002278A2F12E012B2916D9173A162A15D9BE
:1054D000A3F13C020F2A03D822783C3A0F2A0FD9B5
:1054E000283B162B03D82378133B0C2B0AD9002119
:1054F000316008E0524906E0524904E0524902E0B6
:10550000524900E0524933681BB14422514805F02A
:105510004EFF484A002313600122C8F80020237080
:105520006EE03F4B19681C4600296BD0494B002A9E
:1055300047D0404A5F6B116896468F420DD19A6BF7
:10554000012A0AD1344A59691268914218D89969D6
:105550008A4215D8C3F838C085E0DFF8DC801868C7
:1055600098F80020012802F10102D2B288F8002048
:10557000DFF8E0C007D0E92A75D97A1E91421AD027
:10558000002333609CE00B2A6AD90A29F3D9264FFD
:105590004A1CCCF834203A68A1F10B0E42EA0E22E4
:1055A0003A60DCF82C20114401310A22CCF830108A
:1055B00088F8002005E09B6B002BE1D1CEF800704D
:1055C00051E01968234A0329134FDFF86CE040F0DB
:1055D000A38318480168102940F09E833B68053B6F
:1055E000072B00F2B3839EF80030A3F13C0EBEF10E
:1055F0000F0F00F285830023236011230360012332
:105600003B602DE042BB044A13680133136027E07E
:105610002408002060090020040A00200C0A002051
:105620002808002068090020180A0020140A002019
:10563000140800202C080020280A0020100A00204E
:10564000B4C900082CC9000870C90008F8C90008CE
:105650003CCA0008C807002001221A60964B1A7045
:105660003368002B30D0954B954A5F6B1268974298
:105670002AD19A6B42BB934C934AD4F800E011684C
:105680008E45924940F0768391480068B0F5966F58
:1056900080F07083086801301B680860012B40F0BF
:1056A0006B8309680139012900F27483884B00215A
:1056B00019602B68002B40F0CC830023336013600B
:1056C000844A13607C4A13702B68834D2B68012B2E
:1056D0000CD940F6A661814A136801338B421360EE
:1056E00004D17F4B01211960002313607D4A1368A8
:1056F0000133EA2B136004D17B4B01211960002395
:1057000013607A4B1B68002B00F0CF81784A136836
:105710000133962B136040F0C88100201060754A59
:1057200011681446FF290CD173490B68642B05BF1F
:10573000724B4FF400710133596114BF0B6010605C
:10574000B3E16E4B6E4A9B684FF4005013F48073C4
:1057500040F00D83106101296A4A08D003D3022961
:10576000694E16D02CE00121216013609DE1116883
:105770008B4200F09A81002B1360644B4FF0FF02C4
:105780001A60614B0CBF02210321002221601A60C4
:105790008BE111688B4202D1336801330EE0136054
:1057A00033680321782B216003D9584B00221A60FB
:1057B00003E04A2B01D8002323600023336074E107
:1057C00011688B42E8D01360336802219A1F122AB5
:1057D00021604E4F0BD9052B94BF4D484D48FFF724
:1057E00009FE4D48FFF706FE0023236014E10F2B4E
:1057F0003B6840F2FD80113B292B00F20D81DFE870
:1058000013F02A000B010B010B012E0032003B00AC
:105810003F00430047004B004F00560097009B009D
:105820009F00A300A700AD00B300B500B700B9000A
:10583000BB00BD00BF00C300C700CB00CD00CF0040
:10584000D100D300D500D700D900DB00DF00E30092
:10585000E700EB00F100314B01221A60DCE0304A36
:105860001368013302E02E4A1368023313602D4A95
:10587000136801331360CFE0294A13680433F5E756
:10588000274A13680833F1E7254A13680A33EDE71E
:10589000234A13681433E9E7214A13682833E5E7FC
:1058A000204B1B68DA0700F1B7801F4897E71F4AB3
:1058B000136801334FE000BF280A0020C80700200A
:1058C0002C08002064000020680900203008002017
:1058D000100A0020040A00204C010020F0090020DA
:1058E0009403002040080020CC0100204428002020
:1058F000200A00205C00002020080020000C01404D
:105900000010014048090020340800205400002005
:10591000B0CA0008CDCA0008EFC000085009002036
:10592000E006002010080020EBCA0008F802002062
:10593000914A136802330EE08F4A136804330AE079
:105940008D4A1368083306E08B4A13680A3302E075
:10595000894A136814331360884A89E7874B1B68A8
:10596000DB0759D486483AE7864A0AE0854A0CE0C4
:10597000844A0EE0834A20E0824A22E0814A24E001
:10598000814A136801332AE07F4A1368023326E014
:105990007D4A1368043322E07C4AF2E77B4AF4E74D
:1059A0007A4AF6E7794A08E0784A0AE0784AE8E76E
:1059B000774AEAE7764AECE7754A136808330EE05F
:1059C000734A13680A330AE0714A1368143306E015
:1059D0006F4A1368283302E06D4A1368503313602E
:1059E0006C4A45E76B4B1B68D80715D46A48F6E646
:1059F000232B08D03A2B0BD01C2B0DD1674B1B68E7
:105A0000D90709D551E75D4B1B68DA0704D5A9E72B
:105A1000604B1B68DB07E9D43A680F2A0AD1604B58
:105A20001A68002A00F03D825E4A012111600022BE
:105A30001A6036E2102A19D15A4900230B605849DE
:105A40000B6056490B604D490B6052490B6056493B
:105A50000B6056490B6048490B604B490B60494944
:105A60000B604A490B604A490B6002E0FF2A3FF491
:105A7000A4AE01323B2A3A6014D13F4A4C4B116824
:105A800018684A4C88424B4807D1016827680131A1
:105A9000B94202BF424901270F6012681A602368A9
:105AA00003608AE63FF687AE87E6434A1368013310
:105AB000962B136004D1414B012119600023136020
:105AC0003F4A136801330F2B136004D13D4B012172
:105AD0001960002313603C490B68BBB13B4B1A684B
